{
  "contractName": "Property",
  "abi": [
    {
      "inputs": [],
      "stateMutability": "nonpayable",
      "type": "constructor"
    },
    {
      "anonymous": false,
      "inputs": [
        {
          "indexed": true,
          "internalType": "address",
          "name": "owner",
          "type": "address"
        },
        {
          "indexed": true,
          "internalType": "address",
          "name": "approved",
          "type": "address"
        },
        {
          "indexed": true,
          "internalType": "uint256",
          "name": "tokenId",
          "type": "uint256"
        }
      ],
      "name": "Approval",
      "type": "event"
    },
    {
      "anonymous": false,
      "inputs": [
        {
          "indexed": true,
          "internalType": "address",
          "name": "owner",
          "type": "address"
        },
        {
          "indexed": true,
          "internalType": "address",
          "name": "operator",
          "type": "address"
        },
        {
          "indexed": false,
          "internalType": "bool",
          "name": "approved",
          "type": "bool"
        }
      ],
      "name": "ApprovalForAll",
      "type": "event"
    },
    {
      "anonymous": false,
      "inputs": [
        {
          "indexed": true,
          "internalType": "address",
          "name": "from",
          "type": "address"
        },
        {
          "indexed": true,
          "internalType": "address",
          "name": "to",
          "type": "address"
        },
        {
          "indexed": true,
          "internalType": "uint256",
          "name": "tokenId",
          "type": "uint256"
        }
      ],
      "name": "Transfer",
      "type": "event"
    },
    {
      "inputs": [
        {
          "internalType": "address",
          "name": "to",
          "type": "address"
        },
        {
          "internalType": "uint256",
          "name": "tokenId",
          "type": "uint256"
        }
      ],
      "name": "approve",
      "outputs": [],
      "stateMutability": "nonpayable",
      "type": "function"
    },
    {
      "inputs": [
        {
          "internalType": "address",
          "name": "owner",
          "type": "address"
        }
      ],
      "name": "balanceOf",
      "outputs": [
        {
          "internalType": "uint256",
          "name": "",
          "type": "uint256"
        }
      ],
      "stateMutability": "view",
      "type": "function",
      "constant": true
    },
    {
      "inputs": [
        {
          "internalType": "uint256",
          "name": "tokenId",
          "type": "uint256"
        }
      ],
      "name": "getApproved",
      "outputs": [
        {
          "internalType": "address",
          "name": "",
          "type": "address"
        }
      ],
      "stateMutability": "view",
      "type": "function",
      "constant": true
    },
    {
      "inputs": [
        {
          "internalType": "address",
          "name": "owner",
          "type": "address"
        },
        {
          "internalType": "address",
          "name": "operator",
          "type": "address"
        }
      ],
      "name": "isApprovedForAll",
      "outputs": [
        {
          "internalType": "bool",
          "name": "",
          "type": "bool"
        }
      ],
      "stateMutability": "view",
      "type": "function",
      "constant": true
    },
    {
      "inputs": [],
      "name": "name",
      "outputs": [
        {
          "internalType": "string",
          "name": "",
          "type": "string"
        }
      ],
      "stateMutability": "view",
      "type": "function",
      "constant": true
    },
    {
      "inputs": [
        {
          "internalType": "uint256",
          "name": "tokenId",
          "type": "uint256"
        }
      ],
      "name": "ownerOf",
      "outputs": [
        {
          "internalType": "address",
          "name": "",
          "type": "address"
        }
      ],
      "stateMutability": "view",
      "type": "function",
      "constant": true
    },
    {
      "inputs": [
        {
          "internalType": "uint256",
          "name": "",
          "type": "uint256"
        }
      ],
      "name": "properties",
      "outputs": [
        {
          "internalType": "string",
          "name": "",
          "type": "string"
        }
      ],
      "stateMutability": "view",
      "type": "function",
      "constant": true
    },
    {
      "inputs": [
        {
          "internalType": "address",
          "name": "from",
          "type": "address"
        },
        {
          "internalType": "address",
          "name": "to",
          "type": "address"
        },
        {
          "internalType": "uint256",
          "name": "tokenId",
          "type": "uint256"
        }
      ],
      "name": "safeTransferFrom",
      "outputs": [],
      "stateMutability": "nonpayable",
      "type": "function"
    },
    {
      "inputs": [
        {
          "internalType": "address",
          "name": "from",
          "type": "address"
        },
        {
          "internalType": "address",
          "name": "to",
          "type": "address"
        },
        {
          "internalType": "uint256",
          "name": "tokenId",
          "type": "uint256"
        },
        {
          "internalType": "bytes",
          "name": "_data",
          "type": "bytes"
        }
      ],
      "name": "safeTransferFrom",
      "outputs": [],
      "stateMutability": "nonpayable",
      "type": "function"
    },
    {
      "inputs": [
        {
          "internalType": "address",
          "name": "operator",
          "type": "address"
        },
        {
          "internalType": "bool",
          "name": "approved",
          "type": "bool"
        }
      ],
      "name": "setApprovalForAll",
      "outputs": [],
      "stateMutability": "nonpayable",
      "type": "function"
    },
    {
      "inputs": [
        {
          "internalType": "bytes4",
          "name": "interfaceId",
          "type": "bytes4"
        }
      ],
      "name": "supportsInterface",
      "outputs": [
        {
          "internalType": "bool",
          "name": "",
          "type": "bool"
        }
      ],
      "stateMutability": "view",
      "type": "function",
      "constant": true
    },
    {
      "inputs": [],
      "name": "symbol",
      "outputs": [
        {
          "internalType": "string",
          "name": "",
          "type": "string"
        }
      ],
      "stateMutability": "view",
      "type": "function",
      "constant": true
    },
    {
      "inputs": [
        {
          "internalType": "uint256",
          "name": "tokenId",
          "type": "uint256"
        }
      ],
      "name": "tokenURI",
      "outputs": [
        {
          "internalType": "string",
          "name": "",
          "type": "string"
        }
      ],
      "stateMutability": "view",
      "type": "function",
      "constant": true
    },
    {
      "inputs": [
        {
          "internalType": "address",
          "name": "from",
          "type": "address"
        },
        {
          "internalType": "address",
          "name": "to",
          "type": "address"
        },
        {
          "internalType": "uint256",
          "name": "tokenId",
          "type": "uint256"
        }
      ],
      "name": "transferFrom",
      "outputs": [],
      "stateMutability": "nonpayable",
      "type": "function"
    },
    {
      "inputs": [
        {
          "internalType": "string",
          "name": "_propAddress",
          "type": "string"
        },
        {
          "internalType": "uint8",
          "name": "bed",
          "type": "uint8"
        },
        {
          "internalType": "uint8",
          "name": "bath",
          "type": "uint8"
        },
        {
          "internalType": "uint16",
          "name": "sqft",
          "type": "uint16"
        },
        {
          "internalType": "uint16",
          "name": "zipCode",
          "type": "uint16"
        }
      ],
      "name": "mint",
      "outputs": [],
      "stateMutability": "nonpayable",
      "type": "function"
    },
    {
      "inputs": [
        {
          "internalType": "uint256",
          "name": "_id",
          "type": "uint256"
        }
      ],
      "name": "get",
      "outputs": [
        {
          "internalType": "uint8",
          "name": "bed",
          "type": "uint8"
        },
        {
          "internalType": "uint8",
          "name": "bath",
          "type": "uint8"
        },
        {
          "internalType": "uint16",
          "name": "sqft",
          "type": "uint16"
        },
        {
          "internalType": "uint16",
          "name": "zipCode",
          "type": "uint16"
        }
      ],
      "stateMutability": "view",
      "type": "function",
      "constant": true
    }
  ],
  "bytecode": "0x60806040523480156200001157600080fd5b506040518060400160405280600881526020017f50726f70657274790000000000000000000000000000000000000000000000008152506040518060400160405280600481526020017f50524f5000000000000000000000000000000000000000000000000000000000815250816000908051906020019062000096929190620000b8565b508060019080519060200190620000af929190620000b8565b505050620001cd565b828054620000c69062000197565b90600052602060002090601f016020900481019282620000ea576000855562000136565b82601f106200010557805160ff191683800117855562000136565b8280016001018555821562000136579182015b828111156200013557825182559160200191906001019062000118565b5b50905062000145919062000149565b5090565b5b80821115620001645760008160009055506001016200014a565b5090565b7f4e487b7100000000000000000000000000000000000000000000000000000000600052602260045260246000fd5b60006002820490506001821680620001b057607f821691505b60208210811415620001c757620001c662000168565b5b50919050565b612e1580620001dd6000396000f3fe608060405234801561001057600080fd5b506004361061011d576000357c01000000000000000000000000000000000000000000000000000000009004806390bd3564116100b4578063b88d4fde11610083578063b88d4fde146102dd578063c87b56dd146102f9578063e985e9c514610329578063f7b10808146103595761011d565b806390bd3564146102545780639507d39a1461027057806395d89b41146102a3578063a22cb465146102c15761011d565b806323b872dd116100f057806323b872dd146101bc57806342842e0e146101d85780636352211e146101f457806370a08231146102245761011d565b806301ffc9a71461012257806306fdde0314610152578063081812fc14610170578063095ea7b3146101a0575b600080fd5b61013c60048036038101906101379190611b07565b610389565b6040516101499190611b4f565b60405180910390f35b61015a61046b565b6040516101679190611c03565b60405180910390f35b61018a60048036038101906101859190611c5b565b6104fd565b6040516101979190611cc9565b60405180910390f35b6101ba60048036038101906101b59190611d10565b610582565b005b6101d660048036038101906101d19190611d50565b61069a565b005b6101f260048036038101906101ed9190611d50565b6106fa565b005b61020e60048036038101906102099190611c5b565b61071a565b60405161021b9190611cc9565b60405180910390f35b61023e60048036038101906102399190611da3565b6107cc565b60405161024b9190611ddf565b60405180910390f35b61026e60048036038101906102699190611fa2565b610884565b005b61028a60048036038101906102859190611c5b565b610a22565b60405161029a9493929190612057565b60405180910390f35b6102ab610b30565b6040516102b89190611c03565b60405180910390f35b6102db60048036038101906102d691906120c8565b610bc2565b005b6102f760048036038101906102f291906121a9565b610bd8565b005b610313600480360381019061030e9190611c5b565b610c3a565b6040516103209190611c03565b60405180910390f35b610343600480360381019061033e919061222c565b610ce1565b6040516103509190611b4f565b60405180910390f35b610373600480360381019061036e9190611c5b565b610d75565b6040516103809190611c03565b60405180910390f35b60007f80ac58cd000000000000000000000000000000000000000000000000000000007bffffffffffffffffffffffffffffffffffffffffffffffffffffffff1916827bffffffffffffffffffffffffffffffffffffffffffffffffffffffff1916148061045457507f5b5e139f000000000000000000000000000000000000000000000000000000007bffffffffffffffffffffffffffffffffffffffffffffffffffffffff1916827bffffffffffffffffffffffffffffffffffffffffffffffffffffffff1916145b80610464575061046382610e21565b5b9050919050565b60606000805461047a9061229b565b80601f01602080910402602001604051908101604052809291908181526020018280546104a69061229b565b80156104f35780601f106104c8576101008083540402835291602001916104f3565b820191906000526020600020905b8154815290600101906020018083116104d657829003601f168201915b5050505050905090565b600061050882610e8b565b610547576040517f08c379a000000000000000000000000000000000000000000000000000000000815260040161053e9061233f565b60405180910390fd5b6004600083815260200190815260200160002060009054906101000a900473ffffffffffffffffffffffffffffffffffffffff169050919050565b600061058d8261071a565b90508073ffffffffffffffffffffffffffffffffffffffff168373ffffffffffffffffffffffffffffffffffffffff1614156105fe576040517f08c379a00000000000000000000000000000000000000000000000000000000081526004016105f5906123d1565b60405180910390fd5b8073ffffffffffffffffffffffffffffffffffffffff1661061d610ef7565b73ffffffffffffffffffffffffffffffffffffffff16148061064c575061064b81610646610ef7565b610ce1565b5b61068b576040517f08c379a000000000000000000000000000000000000000000000000000000000815260040161068290612463565b60405180910390fd5b6106958383610eff565b505050565b6106ab6106a5610ef7565b82610fb8565b6106ea576040517f08c379a00000000000000000000000000000000000000000000000000000000081526004016106e1906124f5565b60405180910390fd5b6106f5838383611096565b505050565b61071583838360405180602001604052806000815250610bd8565b505050565b6000806002600084815260200190815260200160002060009054906101000a900473ffffffffffffffffffffffffffffffffffffffff169050600073ffffffffffffffffffffffffffffffffffffffff168173ffffffffffffffffffffffffffffffffffffffff1614156107c3576040517f08c379a00000000000000000000000000000000000000000000000000000000081526004016107ba90612587565b60405180910390fd5b80915050919050565b60008073ffffffffffffffffffffffffffffffffffffffff168273ffffffffffffffffffffffffffffffffffffffff16141561083d576040517f08c379a000000000000000000000000000000000000000000000000000000000815260040161083490612619565b60405180910390fd5b600360008373ffffffffffffffffffffffffffffffffffffffff1673ffffffffffffffffffffffffffffffffffffffff168152602001908152602001600020549050919050565b6007856040516108949190612675565b908152602001604051809103902060009054906101000a900460ff16156108ba57600080fd5b6006859080600181540180825580915050600190039060005260206000200160009091909190915090805190602001906108f59291906119f8565b506000600160068054905061090a91906126bb565b905060405180608001604052808660ff1681526020018560ff1681526020018461ffff1681526020018361ffff168152506008600083815260200190815260200160002060008201518160000160006101000a81548160ff021916908360ff16021790555060208201518160000160016101000a81548160ff021916908360ff16021790555060408201518160000160026101000a81548161ffff021916908361ffff16021790555060608201518160000160046101000a81548161ffff021916908361ffff1602179055509050506109e333826112f2565b60016007876040516109f59190612675565b908152602001604051809103902060006101000a81548160ff021916908315150217905550505050505050565b600080600080610a3185610e8b565b610a70576040517f08c379a0000000000000000000000000000000000000000000000000000000008152600401610a679061273b565b60405180910390fd5b6000600860008781526020019081526020016000206040518060800160405290816000820160009054906101000a900460ff1660ff1660ff1681526020016000820160019054906101000a900460ff1660ff1660ff1681526020016000820160029054906101000a900461ffff1661ffff1661ffff1681526020016000820160049054906101000a900461ffff1661ffff1661ffff1681525050905080600001519450806020015193508060400151925080606001519150509193509193565b606060018054610b3f9061229b565b80601f0160208091040260200160405190810160405280929190818152602001828054610b6b9061229b565b8015610bb85780601f10610b8d57610100808354040283529160200191610bb8565b820191906000526020600020905b815481529060010190602001808311610b9b57829003601f168201915b5050505050905090565b610bd4610bcd610ef7565b83836114c0565b5050565b610be9610be3610ef7565b83610fb8565b610c28576040517f08c379a0000000000000000000000000000000000000000000000000000000008152600401610c1f906124f5565b60405180910390fd5b610c348484848461162d565b50505050565b6060610c4582610e8b565b610c84576040517f08c379a0000000000000000000000000000000000000000000000000000000008152600401610c7b906127cd565b60405180910390fd5b6000610c8e611689565b90506000815111610cae5760405180602001604052806000815250610cd9565b80610cb8846116a0565b604051602001610cc99291906127ed565b6040516020818303038152906040525b915050919050565b6000600560008473ffffffffffffffffffffffffffffffffffffffff1673ffffffffffffffffffffffffffffffffffffffff16815260200190815260200160002060008373ffffffffffffffffffffffffffffffffffffffff1673ffffffffffffffffffffffffffffffffffffffff16815260200190815260200160002060009054906101000a900460ff16905092915050565b60068181548110610d8557600080fd5b906000526020600020016000915090508054610da09061229b565b80601f0160208091040260200160405190810160405280929190818152602001828054610dcc9061229b565b8015610e195780601f10610dee57610100808354040283529160200191610e19565b820191906000526020600020905b815481529060010190602001808311610dfc57829003601f168201915b505050505081565b60007f01ffc9a7000000000000000000000000000000000000000000000000000000007bffffffffffffffffffffffffffffffffffffffffffffffffffffffff1916827bffffffffffffffffffffffffffffffffffffffffffffffffffffffff1916149050919050565b60008073ffffffffffffffffffffffffffffffffffffffff166002600084815260200190815260200160002060009054906101000a900473ffffffffffffffffffffffffffffffffffffffff1673ffffffffffffffffffffffffffffffffffffffff1614159050919050565b600033905090565b816004600083815260200190815260200160002060006101000a81548173ffffffffffffffffffffffffffffffffffffffff021916908373ffffffffffffffffffffffffffffffffffffffff160217905550808273ffffffffffffffffffffffffffffffffffffffff16610f728361071a565b73ffffffffffffffffffffffffffffffffffffffff167f8c5be1e5ebec7d5bd14f71427d1e84f3dd0314c0f7b2291e5b200ac8c7c3b92560405160405180910390a45050565b6000610fc382610e8b565b611002576040517f08c379a0000000000000000000000000000000000000000000000000000000008152600401610ff990612883565b60405180910390fd5b600061100d8361071a565b90508073ffffffffffffffffffffffffffffffffffffffff168473ffffffffffffffffffffffffffffffffffffffff16148061107c57508373ffffffffffffffffffffffffffffffffffffffff16611064846104fd565b73ffffffffffffffffffffffffffffffffffffffff16145b8061108d575061108c8185610ce1565b5b91505092915050565b8273ffffffffffffffffffffffffffffffffffffffff166110b68261071a565b73ffffffffffffffffffffffffffffffffffffffff161461110c576040517f08c379a000000000000000000000000000000000000000000000000000000000815260040161110390612915565b60405180910390fd5b600073ffffffffffffffffffffffffffffffffffffffff168273ffffffffffffffffffffffffffffffffffffffff16141561117c576040517f08c379a0000000000000000000000000000000000000000000000000000000008152600401611173906129a7565b60405180910390fd5b611187838383611820565b611192600082610eff565b6001600360008573ffffffffffffffffffffffffffffffffffffffff1673ffffffffffffffffffffffffffffffffffffffff16815260200190815260200160002060008282546111e291906126bb565b925050819055506001600360008473ffffffffffffffffffffffffffffffffffffffff1673ffffffffffffffffffffffffffffffffffffffff168152602001908152602001600020600082825461123991906129c7565b92505081905550816002600083815260200190815260200160002060006101000a81548173ffffffffffffffffffffffffffffffffffffffff021916908373ffffffffffffffffffffffffffffffffffffffff160217905550808273ffffffffffffffffffffffffffffffffffffffff168473ffffffffffffffffffffffffffffffffffffffff167fddf252ad1be2c89b69c2b068fc378daa952ba7f163c4a11628f55a4df523b3ef60405160405180910390a4505050565b600073ffffffffffffffffffffffffffffffffffffffff168273ffffffffffffffffffffffffffffffffffffffff161415611362576040517f08c379a000000000000000000000000000000000000000000000000000000000815260040161135990612a69565b60405180910390fd5b61136b81610e8b565b156113ab576040517f08c379a00000000000000000000000000000000000000000000000000000000081526004016113a290612ad5565b60405180910390fd5b6113b760008383611820565b6001600360008473ffffffffffffffffffffffffffffffffffffffff1673ffffffffffffffffffffffffffffffffffffffff168152602001908152602001600020600082825461140791906129c7565b92505081905550816002600083815260200190815260200160002060006101000a81548173ffffffffffffffffffffffffffffffffffffffff021916908373ffffffffffffffffffffffffffffffffffffffff160217905550808273ffffffffffffffffffffffffffffffffffffffff16600073ffffffffffffffffffffffffffffffffffffffff167fddf252ad1be2c89b69c2b068fc378daa952ba7f163c4a11628f55a4df523b3ef60405160405180910390a45050565b8173ffffffffffffffffffffffffffffffffffffffff168373ffffffffffffffffffffffffffffffffffffffff16141561152f576040517f08c379a000000000000000000000000000000000000000000000000000000000815260040161152690612b41565b60405180910390fd5b80600560008573ffffffffffffffffffffffffffffffffffffffff1673ffffffffffffffffffffffffffffffffffffffff16815260200190815260200160002060008473ffffffffffffffffffffffffffffffffffffffff1673ffffffffffffffffffffffffffffffffffffffff16815260200190815260200160002060006101000a81548160ff0219169083151502179055508173ffffffffffffffffffffffffffffffffffffffff168373ffffffffffffffffffffffffffffffffffffffff167f17307eab39ab6107e8899845ad3d59bd9653f200f220920489ca2b5937696c31836040516116209190611b4f565b60405180910390a3505050565b611638848484611096565b61164484848484611825565b611683576040517f08c379a000000000000000000000000000000000000000000000000000000000815260040161167a90612bd3565b60405180910390fd5b50505050565b606060405180602001604052806000815250905090565b606060008214156116e8576040518060400160405280600181526020017f3000000000000000000000000000000000000000000000000000000000000000815250905061181b565b600082905060005b6000821461171a57808061170390612bf3565b915050600a826117139190612c6b565b91506116f0565b60008167ffffffffffffffff81111561173657611735611e04565b5b6040519080825280601f01601f1916602001820160405280156117685781602001600182028036833780820191505090505b5090505b600085146118145760018261178191906126bb565b9150600a856117909190612c9c565b603061179c91906129c7565b7f0100000000000000000000000000000000000000000000000000000000000000028183815181106117d1576117d0612ccd565b5b60200101907effffffffffffffffffffffffffffffffffffffffffffffffffffffffffffff1916908160001a905350600a8561180d9190612c6b565b945061176c565b8093505050505b919050565b505050565b60006118468473ffffffffffffffffffffffffffffffffffffffff166119e5565b156119d8578373ffffffffffffffffffffffffffffffffffffffff1663150b7a0261186f610ef7565b8786866040518563ffffffff167c01000000000000000000000000000000000000000000000000000000000281526004016118ad9493929190612d51565b6020604051808303816000875af19250505080156118e957506040513d601f19601f820116820180604052508101906118e69190612db2565b60015b61196c573d8060008114611919576040519150601f19603f3d011682016040523d82523d6000602084013e61191e565b606091505b50600081511415611964576040517f08c379a000000000000000000000000000000000000000000000000000000000815260040161195b90612bd3565b60405180910390fd5b805181602001fd5b63150b7a027c0100000000000000000000000000000000000000000000000000000000027bffffffffffffffffffffffffffffffffffffffffffffffffffffffff1916817bffffffffffffffffffffffffffffffffffffffffffffffffffffffff1916149150506119dd565b600190505b949350505050565b600080823b905060008111915050919050565b828054611a049061229b565b90600052602060002090601f016020900481019282611a265760008555611a6d565b82601f10611a3f57805160ff1916838001178555611a6d565b82800160010185558215611a6d579182015b82811115611a6c578251825591602001919060010190611a51565b5b509050611a7a9190611a7e565b5090565b5b80821115611a97576000816000905550600101611a7f565b5090565b6000604051905090565b600080fd5b600080fd5b60007fffffffff0000000000000000000000000000000000000000000000000000000082169050919050565b611ae481611aaf565b8114611aef57600080fd5b50565b600081359050611b0181611adb565b92915050565b600060208284031215611b1d57611b1c611aa5565b5b6000611b2b84828501611af2565b91505092915050565b60008115159050919050565b611b4981611b34565b82525050565b6000602082019050611b646000830184611b40565b92915050565b600081519050919050565b600082825260208201905092915050565b60005b83811015611ba4578082015181840152602081019050611b89565b83811115611bb3576000848401525b50505050565b6000601f19601f8301169050919050565b6000611bd582611b6a565b611bdf8185611b75565b9350611bef818560208601611b86565b611bf881611bb9565b840191505092915050565b60006020820190508181036000830152611c1d8184611bca565b905092915050565b6000819050919050565b611c3881611c25565b8114611c4357600080fd5b50565b600081359050611c5581611c2f565b92915050565b600060208284031215611c7157611c70611aa5565b5b6000611c7f84828501611c46565b91505092915050565b600073ffffffffffffffffffffffffffffffffffffffff82169050919050565b6000611cb382611c88565b9050919050565b611cc381611ca8565b82525050565b6000602082019050611cde6000830184611cba565b92915050565b611ced81611ca8565b8114611cf857600080fd5b50565b600081359050611d0a81611ce4565b92915050565b60008060408385031215611d2757611d26611aa5565b5b6000611d3585828601611cfb565b9250506020611d4685828601611c46565b9150509250929050565b600080600060608486031215611d6957611d68611aa5565b5b6000611d7786828701611cfb565b9350506020611d8886828701611cfb565b9250506040611d9986828701611c46565b9150509250925092565b600060208284031215611db957611db8611aa5565b5b6000611dc784828501611cfb565b91505092915050565b611dd981611c25565b82525050565b6000602082019050611df46000830184611dd0565b92915050565b600080fd5b600080fd5b7f4e487b7100000000000000000000000000000000000000000000000000000000600052604160045260246000fd5b611e3c82611bb9565b810181811067ffffffffffffffff82111715611e5b57611e5a611e04565b5b80604052505050565b6000611e6e611a9b565b9050611e7a8282611e33565b919050565b600067ffffffffffffffff821115611e9a57611e99611e04565b5b611ea382611bb9565b9050602081019050919050565b82818337600083830152505050565b6000611ed2611ecd84611e7f565b611e64565b905082815260208101848484011115611eee57611eed611dff565b5b611ef9848285611eb0565b509392505050565b600082601f830112611f1657611f15611dfa565b5b8135611f26848260208601611ebf565b91505092915050565b600060ff82169050919050565b611f4581611f2f565b8114611f5057600080fd5b50565b600081359050611f6281611f3c565b92915050565b600061ffff82169050919050565b611f7f81611f68565b8114611f8a57600080fd5b50565b600081359050611f9c81611f76565b92915050565b600080600080600060a08688031215611fbe57611fbd611aa5565b5b600086013567ffffffffffffffff811115611fdc57611fdb611aaa565b5b611fe888828901611f01565b9550506020611ff988828901611f53565b945050604061200a88828901611f53565b935050606061201b88828901611f8d565b925050608061202c88828901611f8d565b9150509295509295909350565b61204281611f2f565b82525050565b61205181611f68565b82525050565b600060808201905061206c6000830187612039565b6120796020830186612039565b6120866040830185612048565b6120936060830184612048565b95945050505050565b6120a581611b34565b81146120b057600080fd5b50565b6000813590506120c28161209c565b92915050565b600080604083850312156120df576120de611aa5565b5b60006120ed85828601611cfb565b92505060206120fe858286016120b3565b9150509250929050565b600067ffffffffffffffff82111561212357612122611e04565b5b61212c82611bb9565b9050602081019050919050565b600061214c61214784612108565b611e64565b90508281526020810184848401111561216857612167611dff565b5b612173848285611eb0565b509392505050565b600082601f8301126121905761218f611dfa565b5b81356121a0848260208601612139565b91505092915050565b600080600080608085870312156121c3576121c2611aa5565b5b60006121d187828801611cfb565b94505060206121e287828801611cfb565b93505060406121f387828801611c46565b925050606085013567ffffffffffffffff81111561221457612213611aaa565b5b6122208782880161217b565b91505092959194509250565b6000806040838503121561224357612242611aa5565b5b600061225185828601611cfb565b925050602061226285828601611cfb565b9150509250929050565b7f4e487b7100000000000000000000000000000000000000000000000000000000600052602260045260246000fd5b600060028204905060018216806122b357607f821691505b602082108114156122c7576122c661226c565b5b50919050565b7f4552433732313a20617070726f76656420717565727920666f72206e6f6e657860008201527f697374656e7420746f6b656e0000000000000000000000000000000000000000602082015250565b6000612329602c83611b75565b9150612334826122cd565b604082019050919050565b600060208201905081810360008301526123588161231c565b9050919050565b7f4552433732313a20617070726f76616c20746f2063757272656e74206f776e6560008201527f7200000000000000000000000000000000000000000000000000000000000000602082015250565b60006123bb602183611b75565b91506123c68261235f565b604082019050919050565b600060208201905081810360008301526123ea816123ae565b9050919050565b7f4552433732313a20617070726f76652063616c6c6572206973206e6f74206f7760008201527f6e6572206e6f7220617070726f76656420666f7220616c6c0000000000000000602082015250565b600061244d603883611b75565b9150612458826123f1565b604082019050919050565b6000602082019050818103600083015261247c81612440565b9050919050565b7f4552433732313a207472616e736665722063616c6c6572206973206e6f74206f60008201527f776e6572206e6f7220617070726f766564000000000000000000000000000000602082015250565b60006124df603183611b75565b91506124ea82612483565b604082019050919050565b6000602082019050818103600083015261250e816124d2565b9050919050565b7f4552433732313a206f776e657220717565727920666f72206e6f6e657869737460008201527f656e7420746f6b656e0000000000000000000000000000000000000000000000602082015250565b6000612571602983611b75565b915061257c82612515565b604082019050919050565b600060208201905081810360008301526125a081612564565b9050919050565b7f4552433732313a2062616c616e636520717565727920666f7220746865207a6560008201527f726f206164647265737300000000000000000000000000000000000000000000602082015250565b6000612603602a83611b75565b915061260e826125a7565b604082019050919050565b60006020820190508181036000830152612632816125f6565b9050919050565b600081905092915050565b600061264f82611b6a565b6126598185612639565b9350612669818560208601611b86565b80840191505092915050565b60006126818284612644565b915081905092915050565b7f4e487b7100000000000000000000000000000000000000000000000000000000600052601160045260246000fd5b60006126c682611c25565b91506126d183611c25565b9250828210156126e4576126e361268c565b5b828203905092915050565b7f50726f706572747920646f6573206e6f74206578697374000000000000000000600082015250565b6000612725601783611b75565b9150612730826126ef565b602082019050919050565b6000602082019050818103600083015261275481612718565b9050919050565b7f4552433732314d657461646174613a2055524920717565727920666f72206e6f60008201527f6e6578697374656e7420746f6b656e0000000000000000000000000000000000602082015250565b60006127b7602f83611b75565b91506127c28261275b565b604082019050919050565b600060208201905081810360008301526127e6816127aa565b9050919050565b60006127f98285612644565b91506128058284612644565b91508190509392505050565b7f4552433732313a206f70657261746f7220717565727920666f72206e6f6e657860008201527f697374656e7420746f6b656e0000000000000000000000000000000000000000602082015250565b600061286d602c83611b75565b915061287882612811565b604082019050919050565b6000602082019050818103600083015261289c81612860565b9050919050565b7f4552433732313a207472616e73666572206f6620746f6b656e2074686174206960008201527f73206e6f74206f776e0000000000000000000000000000000000000000000000602082015250565b60006128ff602983611b75565b915061290a826128a3565b604082019050919050565b6000602082019050818103600083015261292e816128f2565b9050919050565b7f4552433732313a207472616e7366657220746f20746865207a65726f2061646460008201527f7265737300000000000000000000000000000000000000000000000000000000602082015250565b6000612991602483611b75565b915061299c82612935565b604082019050919050565b600060208201905081810360008301526129c081612984565b9050919050565b60006129d282611c25565b91506129dd83611c25565b9250827fffffffffffffffffffffffffffffffffffffffffffffffffffffffffffffffff03821115612a1257612a1161268c565b5b828201905092915050565b7f4552433732313a206d696e7420746f20746865207a65726f2061646472657373600082015250565b6000612a53602083611b75565b9150612a5e82612a1d565b602082019050919050565b60006020820190508181036000830152612a8281612a46565b9050919050565b7f4552433732313a20746f6b656e20616c7265616479206d696e74656400000000600082015250565b6000612abf601c83611b75565b9150612aca82612a89565b602082019050919050565b60006020820190508181036000830152612aee81612ab2565b9050919050565b7f4552433732313a20617070726f766520746f2063616c6c657200000000000000600082015250565b6000612b2b601983611b75565b9150612b3682612af5565b602082019050919050565b60006020820190508181036000830152612b5a81612b1e565b9050919050565b7f4552433732313a207472616e7366657220746f206e6f6e20455243373231526560008201527f63656976657220696d706c656d656e7465720000000000000000000000000000602082015250565b6000612bbd603283611b75565b9150612bc882612b61565b604082019050919050565b60006020820190508181036000830152612bec81612bb0565b9050919050565b6000612bfe82611c25565b91507fffffffffffffffffffffffffffffffffffffffffffffffffffffffffffffffff821415612c3157612c3061268c565b5b600182019050919050565b7f4e487b7100000000000000000000000000000000000000000000000000000000600052601260045260246000fd5b6000612c7682611c25565b9150612c8183611c25565b925082612c9157612c90612c3c565b5b828204905092915050565b6000612ca782611c25565b9150612cb283611c25565b925082612cc257612cc1612c3c565b5b828206905092915050565b7f4e487b7100000000000000000000000000000000000000000000000000000000600052603260045260246000fd5b600081519050919050565b600082825260208201905092915050565b6000612d2382612cfc565b612d2d8185612d07565b9350612d3d818560208601611b86565b612d4681611bb9565b840191505092915050565b6000608082019050612d666000830187611cba565b612d736020830186611cba565b612d806040830185611dd0565b8181036060830152612d928184612d18565b905095945050505050565b600081519050612dac81611adb565b92915050565b600060208284031215612dc857612dc7611aa5565b5b6000612dd684828501612d9d565b9150509291505056fea26469706673582212207c414f0e2e96d2d0887f8eff5b7049f9d87742828aad3a6ffbdab211340fa3fe64736f6c634300080b0033",
  "immutableReferences": {},
  "source": "// SPDX-LIcense-Indentifier: MIT\npragma solidity ^0.8.11; \n\nimport \"@openzeppelin/contracts/token/ERC721/ERC721.sol\";\n\ncontract Property is ERC721 {\n\n\n    constructor() ERC721(\"Property\", \"PROP\") public {}\n\n    struct Metadata { // create structure that represents the metadata that the property token will store\n        uint8 bed; \n        uint8 bath; \n        uint16 sqft;\n        uint16 zipCode;\n\n\n    }\n\n    string[] public properties; \n    mapping(string => bool) _propExists;\n    mapping(uint256 => Metadata) prop;\n\n    \n    \n\n    function mint(string memory _propAddress, uint8 bed, uint8 bath, uint16 sqft, uint16 zipCode) external {\n       require(!_propExists[_propAddress]); //require that the property not already exist. \n       properties.push(_propAddress); //add new address to full array \n        uint _id = properties.length - 1; \n       prop[_id] = Metadata(bed, bath, sqft, zipCode); //the property ids will be \n    \n        _mint(msg.sender, _id);\n        _propExists[_propAddress] = true;\n\n    }\n\n\n\n    function get(uint256 _id) external view returns (uint8 bed, uint8 bath, uint16 sqft, uint16 zipCode){\n        require(_exists(_id), \"Property does not exist\");\n        Metadata memory property = prop[_id];\n        bed = property.bed;\n        bath = property.bath;\n        sqft = property.sqft;\n        zipCode = property.zipCode;\n\n    }\n\n    \n}",
  "sourcePath": "/Users/lucastemb/Desktop/nfts/contracts/Property.sol",
  "compiler": {
    "name": "solc",
    "version": "0.8.11+commit.d7f03943.Emscripten.clang"
  },
  "schemaVersion": "3.4.4",
  "updatedAt": "2022-01-28T07:22:39.575Z",
  "networkType": "ethereum",
  "devdoc": {
    "kind": "dev",
    "methods": {
      "approve(address,uint256)": {
        "details": "See {IERC721-approve}."
      },
      "balanceOf(address)": {
        "details": "See {IERC721-balanceOf}."
      },
      "getApproved(uint256)": {
        "details": "See {IERC721-getApproved}."
      },
      "isApprovedForAll(address,address)": {
        "details": "See {IERC721-isApprovedForAll}."
      },
      "name()": {
        "details": "See {IERC721Metadata-name}."
      },
      "ownerOf(uint256)": {
        "details": "See {IERC721-ownerOf}."
      },
      "safeTransferFrom(address,address,uint256)": {
        "details": "See {IERC721-safeTransferFrom}."
      },
      "safeTransferFrom(address,address,uint256,bytes)": {
        "details": "See {IERC721-safeTransferFrom}."
      },
      "setApprovalForAll(address,bool)": {
        "details": "See {IERC721-setApprovalForAll}."
      },
      "supportsInterface(bytes4)": {
        "details": "See {IERC165-supportsInterface}."
      },
      "symbol()": {
        "details": "See {IERC721Metadata-symbol}."
      },
      "tokenURI(uint256)": {
        "details": "See {IERC721Metadata-tokenURI}."
      },
      "transferFrom(address,address,uint256)": {
        "details": "See {IERC721-transferFrom}."
      }
    },
    "version": 1
  },
  "userdoc": {
    "kind": "user",
    "methods": {},
    "version": 1
  }
}